{
  "contractName": "PaperHelper",
  "abi": [
    {
      "constant": false,
      "inputs": [
        {
          "name": "_thesis",
          "type": "string"
        },
        {
          "name": "_conclusion",
          "type": "string"
        },
        {
          "name": "_field",
          "type": "string"
        }
      ],
      "name": "_createPaper",
      "outputs": [],
      "payable": false,
      "stateMutability": "nonpayable",
      "type": "function"
    },
    {
      "constant": true,
      "inputs": [
        {
          "name": "",
          "type": "uint256"
        }
      ],
      "name": "paperToOwner",
      "outputs": [
        {
          "name": "",
          "type": "address"
        }
      ],
      "payable": false,
      "stateMutability": "view",
      "type": "function"
    },
    {
      "constant": true,
      "inputs": [
        {
          "name": "",
          "type": "uint256"
        }
      ],
      "name": "paperDataCount",
      "outputs": [
        {
          "name": "",
          "type": "uint256"
        }
      ],
      "payable": false,
      "stateMutability": "view",
      "type": "function"
    },
    {
      "constant": true,
      "inputs": [
        {
          "name": "",
          "type": "uint256"
        }
      ],
      "name": "papers",
      "outputs": [
        {
          "name": "Thesis",
          "type": "string"
        },
        {
          "name": "Conclusion",
          "type": "string"
        },
        {
          "name": "PaperField",
          "type": "string"
        }
      ],
      "payable": false,
      "stateMutability": "view",
      "type": "function"
    },
    {
      "constant": true,
      "inputs": [],
      "name": "owner",
      "outputs": [
        {
          "name": "",
          "type": "address"
        }
      ],
      "payable": false,
      "stateMutability": "view",
      "type": "function"
    },
    {
      "constant": false,
      "inputs": [
        {
          "name": "paperId",
          "type": "uint256"
        },
        {
          "name": "_testparam",
          "type": "string"
        },
        {
          "name": "_testresult",
          "type": "string"
        },
        {
          "name": "_field",
          "type": "string"
        }
      ],
      "name": "_createDataForPaper",
      "outputs": [],
      "payable": false,
      "stateMutability": "nonpayable",
      "type": "function"
    },
    {
      "constant": true,
      "inputs": [
        {
          "name": "",
          "type": "uint256"
        }
      ],
      "name": "datas",
      "outputs": [
        {
          "name": "TestParameters",
          "type": "string"
        },
        {
          "name": "TestResults",
          "type": "string"
        },
        {
          "name": "Field",
          "type": "string"
        },
        {
          "name": "verifCount",
          "type": "uint16"
        },
        {
          "name": "unverifCount",
          "type": "uint16"
        }
      ],
      "payable": false,
      "stateMutability": "view",
      "type": "function"
    },
    {
      "constant": true,
      "inputs": [
        {
          "name": "",
          "type": "address"
        }
      ],
      "name": "ownerDataCount",
      "outputs": [
        {
          "name": "",
          "type": "uint256"
        }
      ],
      "payable": false,
      "stateMutability": "view",
      "type": "function"
    },
    {
      "constant": true,
      "inputs": [
        {
          "name": "",
          "type": "uint256"
        }
      ],
      "name": "dataToOwner",
      "outputs": [
        {
          "name": "",
          "type": "address"
        }
      ],
      "payable": false,
      "stateMutability": "view",
      "type": "function"
    },
    {
      "constant": true,
      "inputs": [
        {
          "name": "",
          "type": "address"
        }
      ],
      "name": "ownerPaperCount",
      "outputs": [
        {
          "name": "",
          "type": "uint256"
        }
      ],
      "payable": false,
      "stateMutability": "view",
      "type": "function"
    },
    {
      "constant": false,
      "inputs": [
        {
          "name": "newOwner",
          "type": "address"
        }
      ],
      "name": "transferOwnership",
      "outputs": [],
      "payable": false,
      "stateMutability": "nonpayable",
      "type": "function"
    },
    {
      "constant": true,
      "inputs": [
        {
          "name": "",
          "type": "uint256"
        }
      ],
      "name": "DataToPaper",
      "outputs": [
        {
          "name": "",
          "type": "uint256"
        }
      ],
      "payable": false,
      "stateMutability": "view",
      "type": "function"
    },
    {
      "anonymous": false,
      "inputs": [
        {
          "indexed": false,
          "name": "dataId",
          "type": "uint256"
        },
        {
          "indexed": false,
          "name": "thesis",
          "type": "string"
        },
        {
          "indexed": false,
          "name": "conclusion",
          "type": "string"
        },
        {
          "indexed": false,
          "name": "paperfield",
          "type": "string"
        }
      ],
      "name": "NewPaper",
      "type": "event"
    },
    {
      "anonymous": false,
      "inputs": [
        {
          "indexed": false,
          "name": "dataId",
          "type": "uint256"
        },
        {
          "indexed": false,
          "name": "testparam",
          "type": "string"
        },
        {
          "indexed": false,
          "name": "testresult",
          "type": "string"
        }
      ],
      "name": "NewData",
      "type": "event"
    },
    {
      "anonymous": false,
      "inputs": [
        {
          "indexed": true,
          "name": "previousOwner",
          "type": "address"
        },
        {
          "indexed": true,
          "name": "newOwner",
          "type": "address"
        }
      ],
      "name": "OwnershipTransferred",
      "type": "event"
    },
    {
      "constant": false,
      "inputs": [
        {
          "name": "_fee",
          "type": "uint256"
        }
      ],
      "name": "setWeiFee",
      "outputs": [],
      "payable": false,
      "stateMutability": "nonpayable",
      "type": "function"
    },
    {
      "constant": false,
      "inputs": [
        {
          "name": "_dataId",
          "type": "uint256"
        }
      ],
      "name": "incVerifCount",
      "outputs": [],
      "payable": false,
      "stateMutability": "nonpayable",
      "type": "function"
    },
    {
      "constant": false,
      "inputs": [
        {
          "name": "_dataId",
          "type": "uint256"
        }
      ],
      "name": "incUnverifCount",
      "outputs": [],
      "payable": false,
      "stateMutability": "nonpayable",
      "type": "function"
    },
    {
      "constant": true,
      "inputs": [
        {
          "name": "_owner",
          "type": "address"
        }
      ],
      "name": "getDatasByOwner",
      "outputs": [
        {
          "name": "",
          "type": "uint256[]"
        }
      ],
      "payable": false,
      "stateMutability": "view",
      "type": "function"
    },
    {
      "constant": true,
      "inputs": [
        {
          "name": "_owner",
          "type": "address"
        }
      ],
      "name": "getPapersByOwner",
      "outputs": [
        {
          "name": "",
          "type": "uint256[]"
        }
      ],
      "payable": false,
      "stateMutability": "view",
      "type": "function"
    },
    {
      "constant": true,
      "inputs": [
        {
          "name": "paperId",
          "type": "uint256"
        }
      ],
      "name": "getDatasByPaper",
      "outputs": [
        {
          "name": "",
          "type": "uint256[]"
        }
      ],
      "payable": false,
      "stateMutability": "view",
      "type": "function"
    },
    {
      "constant": true,
      "inputs": [
        {
          "name": "paperId",
          "type": "uint256"
        }
      ],
      "name": "getPaperMetabyIdx",
      "outputs": [
        {
          "name": "",
          "type": "string"
        },
        {
          "name": "",
          "type": "string"
        },
        {
          "name": "",
          "type": "string"
        }
      ],
      "payable": false,
      "stateMutability": "view",
      "type": "function"
    },
    {
      "constant": true,
      "inputs": [
        {
          "name": "dataId",
          "type": "uint256"
        }
      ],
      "name": "getDataMetabyIdx",
      "outputs": [
        {
          "name": "",
          "type": "string"
        },
        {
          "name": "",
          "type": "string"
        },
        {
          "name": "",
          "type": "string"
        },
        {
          "name": "",
          "type": "uint16"
        },
        {
          "name": "",
          "type": "uint16"
        }
      ],
      "payable": false,
      "stateMutability": "view",
      "type": "function"
    },
    {
      "constant": true,
      "inputs": [
        {
          "name": "field",
          "type": "string"
        }
      ],
      "name": "getPaperIdxbyField",
      "outputs": [
        {
          "name": "",
          "type": "uint256[]"
        }
      ],
      "payable": false,
      "stateMutability": "view",
      "type": "function"
    }
  ],
  "bytecode": "0x6080604052624c4b40600955336000806101000a81548173ffffffffffffffffffffffffffffffffffffffff021916908373ffffffffffffffffffffffffffffffffffffffff1602179055506128508061005a6000396000f30060806040526004361061011d576000357c0100000000000000000000000000000000000000000000000000000000900463ffffffff16806306f6ed4f1461012257806314909ed31461014f5780634621ee92146101df5780634cb835ed1461024a578063551a14d1146102b75780635ce326b0146102f85780635e775a27146103905780638da5cb5b1461050e578063a2a7f1e314610565578063a98ee0a414610701578063b2f7f0061461072e578063c0a094fd146107a3578063c4651b131461093f578063c5fd8d221461096c578063d3ab9bd814610a04578063d5e836ee14610a5b578063d604ead514610add578063d82c49a614610b4a578063e9436a2814610cc8578063f2fde38b14610d1f578063fe0eb58314610d62575b600080fd5b34801561012e57600080fd5b5061014d60048036038101908080359060200190929190505050610da3565b005b34801561015b57600080fd5b50610188600480360381019080803590602001908201803590602001919091929391929390505050610eb2565b6040518080602001828103825283818151815260200191508051906020019060200280838360005b838110156101cb5780820151818401526020810190506101b0565b505050509050019250505060405180910390f35b3480156101eb57600080fd5b506102486004803603810190808035906020019082018035906020019190919293919293908035906020019082018035906020019190919293919293908035906020019082018035906020019190919293919293905050506110d6565b005b34801561025657600080fd5b5061027560048036038101908080359060200190929190505050611375565b604051808273ffffffffffffffffffffffffffffffffffffffff1673ffffffffffffffffffffffffffffffffffffffff16815260200191505060405180910390f35b3480156102c357600080fd5b506102e2600480360381019080803590602001909291905050506113a8565b6040518082815260200191505060405180910390f35b34801561030457600080fd5b50610339600480360381019080803573ffffffffffffffffffffffffffffffffffffffff1690602001909291905050506113c0565b6040518080602001828103825283818151815260200191508051906020019060200280838360005b8381101561037c578082015181840152602081019050610361565b505050509050019250505060405180910390f35b34801561039c57600080fd5b506103bb600480360381019080803590602001909291905050506114f2565b60405180806020018060200180602001848103845287818151815260200191508051906020019080838360005b838110156104035780820151818401526020810190506103e8565b50505050905090810190601f1680156104305780820380516001836020036101000a031916815260200191505b50848103835286818151815260200191508051906020019080838360005b8381101561046957808201518184015260208101905061044e565b50505050905090810190601f1680156104965780820380516001836020036101000a031916815260200191505b50848103825285818151815260200191508051906020019080838360005b838110156104cf5780820151818401526020810190506104b4565b50505050905090810190601f1680156104fc5780820380516001836020036101000a031916815260200191505b50965050505050505060405180910390f35b34801561051a57600080fd5b506105236116f3565b604051808273ffffffffffffffffffffffffffffffffffffffff1673ffffffffffffffffffffffffffffffffffffffff16815260200191505060405180910390f35b34801561057157600080fd5b5061059060048036038101908080359060200190929190505050611718565b604051808060200180602001806020018661ffff1661ffff1681526020018561ffff1661ffff168152602001848103845289818151815260200191508051906020019080838360005b838110156105f45780820151818401526020810190506105d9565b50505050905090810190601f1680156106215780820380516001836020036101000a031916815260200191505b50848103835288818151815260200191508051906020019080838360005b8381101561065a57808201518184015260208101905061063f565b50505050905090810190601f1680156106875780820380516001836020036101000a031916815260200191505b50848103825287818151815260200191508051906020019080838360005b838110156106c05780820151818401526020810190506106a5565b50505050905090810190601f1680156106ed5780820380516001836020036101000a031916815260200191505b509850505050505050505060405180910390f35b34801561070d57600080fd5b5061072c600480360381019080803590602001909291905050506119c5565b005b34801561073a57600080fd5b506107a160048036038101908080359060200190929190803590602001908201803590602001919091929391929390803590602001908201803590602001919091929391929390803590602001908201803590602001919091929391929390505050611ad4565b005b3480156107af57600080fd5b506107ce60048036038101908080359060200190929190505050611bbe565b604051808060200180602001806020018661ffff1661ffff1681526020018561ffff1661ffff168152602001848103845289818151815260200191508051906020019080838360005b83811015610832578082015181840152602081019050610817565b50505050905090810190601f16801561085f5780820380516001836020036101000a031916815260200191505b50848103835288818151815260200191508051906020019080838360005b8381101561089857808201518184015260208101905061087d565b50505050905090810190601f1680156108c55780820380516001836020036101000a031916815260200191505b50848103825287818151815260200191508051906020019080838360005b838110156108fe5780820151818401526020810190506108e3565b50505050905090810190601f16801561092b5780820380516001836020036101000a031916815260200191505b509850505050505050505060405180910390f35b34801561094b57600080fd5b5061096a60048036038101908080359060200190929190505050611de7565b005b34801561097857600080fd5b506109ad600480360381019080803573ffffffffffffffffffffffffffffffffffffffff169060200190929190505050611e4c565b6040518080602001828103825283818151815260200191508051906020019060200280838360005b838110156109f05780820151818401526020810190506109d5565b505050509050019250505060405180910390f35b348015610a1057600080fd5b50610a45600480360381019080803573ffffffffffffffffffffffffffffffffffffffff169060200190929190505050611f7e565b6040518082815260200191505060405180910390f35b348015610a6757600080fd5b50610a8660048036038101908080359060200190929190505050611f96565b6040518080602001828103825283818151815260200191508051906020019060200280838360005b83811015610ac9578082015181840152602081019050610aae565b505050509050019250505060405180910390f35b348015610ae957600080fd5b50610b08600480360381019080803590602001909291905050506120bf565b604051808273ffffffffffffffffffffffffffffffffffffffff1673ffffffffffffffffffffffffffffffffffffffff16815260200191505060405180910390f35b348015610b5657600080fd5b50610b75600480360381019080803590602001909291905050506120f2565b60405180806020018060200180602001848103845287818151815260200191508051906020019080838360005b83811015610bbd578082015181840152602081019050610ba2565b50505050905090810190601f168015610bea5780820380516001836020036101000a031916815260200191505b50848103835286818151815260200191508051906020019080838360005b83811015610c23578082015181840152602081019050610c08565b50505050905090810190601f168015610c505780820380516001836020036101000a031916815260200191505b50848103825285818151815260200191508051906020019080838360005b83811015610c89578082015181840152602081019050610c6e565b50505050905090810190601f168015610cb65780820380516001836020036101000a031916815260200191505b50965050505050505060405180910390f35b348015610cd457600080fd5b50610d09600480360381019080803573ffffffffffffffffffffffffffffffffffffffff169060200190929190505050612338565b6040518082815260200191505060405180910390f35b348015610d2b57600080fd5b50610d60600480360381019080803573ffffffffffffffffffffffffffffffffffffffff169060200190929190505050612350565b005b348015610d6e57600080fd5b50610d8d600480360381019080803590602001909291905050506124a5565b6040518082815260200191505060405180910390f35b806002600082815260200190815260200160002060009054906101000a900473ffffffffffffffffffffffffffffffffffffffff1673ffffffffffffffffffffffffffffffffffffffff163373ffffffffffffffffffffffffffffffffffffffff1614151515610e1257600080fd5b600182815481101515610e2157fe5b9060005260206000209060040201600301600081819054906101000a900461ffff168092919060010191906101000a81548161ffff021916908361ffff160217905550503373ffffffffffffffffffffffffffffffffffffffff166108fc6009549081150290604051600060405180830381858888f19350505050158015610ead573d6000803e3d6000fd5b505050565b606060008060606000925060009150600091505b600480549050821015610f9c57858560405180838380828437820191505092505050604051809103902060001916600483815481101515610f0357fe5b90600052602060002090600302016002016040518082805460018160011615610100020316600290048015610f6f5780601f10610f4d576101008083540402835291820191610f6f565b820191906000526020600020905b815481529060010190602001808311610f5b575b50509150506040518091039020600019161415610f8f5782806001019350505b8180600101925050610ec6565b82604051908082528060200260200182016040528015610fcb5781602001602082028038833980820191505090505b50905060009250600091505b6004805490508210156110ca5785856040518083838082843782019150509250505060405180910390206000191660048381548110151561101457fe5b906000526020600020906003020160020160405180828054600181600116156101000203166002900480156110805780601f1061105e576101008083540402835291820191611080565b820191906000526020600020905b81548152906001019060200180831161106c575b505091505060405180910390206000191614156110bd578181848151811015156110a657fe5b906020019060200201818152505082806001019350505b8180600101925050610fd7565b80935050505092915050565b6000600160046060604051908101604052808a8a8080601f016020809104026020016040519081016040528093929190818152602001838380828437820191505050505050815260200188888080601f016020809104026020016040519081016040528093929190818152602001838380828437820191505050505050815260200186868080601f0160208091040260200160405190810160405280939291908181526020018383808284378201915050505050508152509080600181540180825580915050906001820390600052602060002090600302016000909192909190915060008201518160000190805190602001906111d592919061277f565b5060208201518160010190805190602001906111f292919061277f565b50604082015181600201908051906020019061120f92919061277f565b505050039050336005600083815260200190815260200160002060006101000a81548173ffffffffffffffffffffffffffffffffffffffff021916908373ffffffffffffffffffffffffffffffffffffffff160217905550600660003373ffffffffffffffffffffffffffffffffffffffff1673ffffffffffffffffffffffffffffffffffffffff16815260200190815260200160002060008154809291906001019190505550600060076000838152602001908152602001600020819055507f09590c1808f23128cfde119e10e2405918cfc275c8ababcdfce0f599c0ee77b1818888888888886040518088815260200180602001806020018060200184810384528a8a82818152602001925080828437820191505084810383528888828181526020019250808284378201915050848103825286868281815260200192508082843782019150509a505050505050505050505060405180910390a150505050505050565b60056020528060005260406000206000915054906101000a900473ffffffffffffffffffffffffffffffffffffffff1681565b60076020528060005260406000206000915090505481565b606080600080600660008673ffffffffffffffffffffffffffffffffffffffff1673ffffffffffffffffffffffffffffffffffffffff168152602001908152602001600020546040519080825280602002602001820160405280156114345781602001602082028038833980820191505090505b50925060009150600090505b6004805490508110156114e7578473ffffffffffffffffffffffffffffffffffffffff166005600083815260200190815260200160002060009054906101000a900473ffffffffffffffffffffffffffffffffffffffff1673ffffffffffffffffffffffffffffffffffffffff1614156114da578083838151811015156114c357fe5b906020019060200201818152505081806001019250505b8080600101915050611440565b829350505050919050565b60048181548110151561150157fe5b9060005260206000209060030201600091509050806000018054600181600116156101000203166002900480601f0160208091040260200160405190810160405280929190818152602001828054600181600116156101000203166002900480156115ad5780601f10611582576101008083540402835291602001916115ad565b820191906000526020600020905b81548152906001019060200180831161159057829003601f168201915b505050505090806001018054600181600116156101000203166002900480601f01602080910402602001604051908101604052809291908181526020018280546001816001161561010002031660029004801561164b5780601f106116205761010080835404028352916020019161164b565b820191906000526020600020905b81548152906001019060200180831161162e57829003601f168201915b505050505090806002018054600181600116156101000203166002900480601f0160208091040260200160405190810160405280929190818152602001828054600181600116156101000203166002900480156116e95780601f106116be576101008083540402835291602001916116e9565b820191906000526020600020905b8154815290600101906020018083116116cc57829003601f168201915b5050505050905083565b6000809054906101000a900473ffffffffffffffffffffffffffffffffffffffff1681565b606080606060008060018681548110151561172f57fe5b906000526020600020906004020160000160018781548110151561174f57fe5b906000526020600020906004020160010160018881548110151561176f57fe5b906000526020600020906004020160020160018981548110151561178f57fe5b906000526020600020906004020160030160009054906101000a900461ffff1660018a8154811015156117be57fe5b906000526020600020906004020160030160029054906101000a900461ffff16848054600181600116156101000203166002900480601f0160208091040260200160405190810160405280929190818152602001828054600181600116156101000203166002900480156118735780601f1061184857610100808354040283529160200191611873565b820191906000526020600020905b81548152906001019060200180831161185657829003601f168201915b50505050509450838054600181600116156101000203166002900480601f01602080910402602001604051908101604052809291908181526020018280546001816001161561010002031660029004801561190f5780601f106118e45761010080835404028352916020019161190f565b820191906000526020600020905b8154815290600101906020018083116118f257829003601f168201915b50505050509350828054600181600116156101000203166002900480601f0160208091040260200160405190810160405280929190818152602001828054600181600116156101000203166002900480156119ab5780601f10611980576101008083540402835291602001916119ab565b820191906000526020600020905b81548152906001019060200180831161198e57829003601f168201915b505050505092509450945094509450945091939590929450565b806002600082815260200190815260200160002060009054906101000a900473ffffffffffffffffffffffffffffffffffffffff1673ffffffffffffffffffffffffffffffffffffffff163373ffffffffffffffffffffffffffffffffffffffff1614151515611a3457600080fd5b600182815481101515611a4357fe5b9060005260206000209060040201600301600281819054906101000a900461ffff168092919060010191906101000a81548161ffff021916908361ffff160217905550503373ffffffffffffffffffffffffffffffffffffffff166108fc6009549081150290604051600060405180830381858888f19350505050158015611acf573d6000803e3d6000fd5b505050565b60006007600089815260200190815260200160002060008154809291906001019190505550611b9a87878080601f01602080910402602001604051908101604052809392919081815260200183838082843782019150505050505086868080601f01602080910402602001604051908101604052809392919081815260200183838082843782019150505050505085858080601f0160208091040260200160405190810160405280939291908181526020018383808284378201915050505050506124bd565b90508760086000838152602001908152602001600020819055505050505050505050565b600181815481101515611bcd57fe5b9060005260206000209060040201600091509050806000018054600181600116156101000203166002900480601f016020809104026020016040519081016040528092919081815260200182805460018160011615610100020316600290048015611c795780601f10611c4e57610100808354040283529160200191611c79565b820191906000526020600020905b815481529060010190602001808311611c5c57829003601f168201915b505050505090806001018054600181600116156101000203166002900480601f016020809104026020016040519081016040528092919081815260200182805460018160011615610100020316600290048015611d175780601f10611cec57610100808354040283529160200191611d17565b820191906000526020600020905b815481529060010190602001808311611cfa57829003601f168201915b505050505090806002018054600181600116156101000203166002900480601f016020809104026020016040519081016040528092919081815260200182805460018160011615610100020316600290048015611db55780601f10611d8a57610100808354040283529160200191611db5565b820191906000526020600020905b815481529060010190602001808311611d9857829003601f168201915b5050505050908060030160009054906101000a900461ffff16908060030160029054906101000a900461ffff16905085565b6000809054906101000a900473ffffffffffffffffffffffffffffffffffffffff1673ffffffffffffffffffffffffffffffffffffffff163373ffffffffffffffffffffffffffffffffffffffff16141515611e4257600080fd5b8060098190555050565b606080600080600360008673ffffffffffffffffffffffffffffffffffffffff1673ffffffffffffffffffffffffffffffffffffffff16815260200190815260200160002054604051908082528060200260200182016040528015611ec05781602001602082028038833980820191505090505b50925060009150600090505b600180549050811015611f73578473ffffffffffffffffffffffffffffffffffffffff166002600083815260200190815260200160002060009054906101000a900473ffffffffffffffffffffffffffffffffffffffff1673ffffffffffffffffffffffffffffffffffffffff161415611f6657808383815181101515611f4f57fe5b906020019060200201818152505081806001019250505b8080600101915050611ecc565b829350505050919050565b60036020528060005260406000206000915090505481565b606080600080846005600082815260200190815260200160002060009054906101000a900473ffffffffffffffffffffffffffffffffffffffff1673ffffffffffffffffffffffffffffffffffffffff163373ffffffffffffffffffffffffffffffffffffffff1614151561200a57600080fd5b600760008781526020019081526020016000205460405190808252806020026020018201604052801561204c5781602001602082028038833980820191505090505b50935060009250600091505b6001805490508210156120b35785600860008481526020019081526020016000205414156120a65781848481518110151561208f57fe5b906020019060200201818152505082806001019350505b8180600101925050612058565b83945050505050919050565b60026020528060005260406000206000915054906101000a900473ffffffffffffffffffffffffffffffffffffffff1681565b606080606060048481548110151561210657fe5b906000526020600020906003020160000160048581548110151561212657fe5b906000526020600020906003020160010160048681548110151561214657fe5b9060005260206000209060030201600201828054600181600116156101000203166002900480601f0160208091040260200160405190810160405280929190818152602001828054600181600116156101000203166002900480156121ec5780601f106121c1576101008083540402835291602001916121ec565b820191906000526020600020905b8154815290600101906020018083116121cf57829003601f168201915b50505050509250818054600181600116156101000203166002900480601f0160208091040260200160405190810160405280929190818152602001828054600181600116156101000203166002900480156122885780601f1061225d57610100808354040283529160200191612288565b820191906000526020600020905b81548152906001019060200180831161226b57829003601f168201915b50505050509150808054600181600116156101000203166002900480601f0160208091040260200160405190810160405280929190818152602001828054600181600116156101000203166002900480156123245780601f106122f957610100808354040283529160200191612324565b820191906000526020600020905b81548152906001019060200180831161230757829003601f168201915b505050505090509250925092509193909250565b60066020528060005260406000206000915090505481565b6000809054906101000a900473ffffffffffffffffffffffffffffffffffffffff1673ffffffffffffffffffffffffffffffffffffffff163373ffffffffffffffffffffffffffffffffffffffff161415156123ab57600080fd5b600073ffffffffffffffffffffffffffffffffffffffff168173ffffffffffffffffffffffffffffffffffffffff16141515156123e757600080fd5b8073ffffffffffffffffffffffffffffffffffffffff166000809054906101000a900473ffffffffffffffffffffffffffffffffffffffff1673ffffffffffffffffffffffffffffffffffffffff167f8be0079c531659141344cd1fd0a4f28419497f9722a3daafe3b4186f6b6457e060405160405180910390a3806000806101000a81548173ffffffffffffffffffffffffffffffffffffffff021916908373ffffffffffffffffffffffffffffffffffffffff16021790555050565b60086020528060005260406000206000915090505481565b60008060018060a060405190810160405280888152602001878152602001868152602001600061ffff168152602001600061ffff1681525090806001815401808255809150509060018203906000526020600020906004020160009091929091909150600082015181600001908051906020019061253c92919061277f565b50602082015181600101908051906020019061255992919061277f565b50604082015181600201908051906020019061257692919061277f565b5060608201518160030160006101000a81548161ffff021916908361ffff16021790555060808201518160030160026101000a81548161ffff021916908361ffff1602179055505050039050336002600083815260200190815260200160002060006101000a81548173ffffffffffffffffffffffffffffffffffffffff021916908373ffffffffffffffffffffffffffffffffffffffff160217905550600360003373ffffffffffffffffffffffffffffffffffffffff1673ffffffffffffffffffffffffffffffffffffffff168152602001908152602001600020600081548092919060010191905055507f92484fe2e43737d514a359d2cd842eafa40ae22cc3f8a2c85e10fe4529be5a75818686604051808481526020018060200180602001838103835285818151815260200191508051906020019080838360005b838110156126d15780820151818401526020810190506126b6565b50505050905090810190601f1680156126fe5780820380516001836020036101000a031916815260200191505b50838103825284818151815260200191508051906020019080838360005b8381101561273757808201518184015260208101905061271c565b50505050905090810190601f1680156127645780820380516001836020036101000a031916815260200191505b509550505050505060405180910390a1809150509392505050565b828054600181600116156101000203166002900490600052602060002090601f016020900481019282601f106127c057805160ff19168380011785556127ee565b828001600101855582156127ee579182015b828111156127ed5782518255916020019190600101906127d2565b5b5090506127fb91906127ff565b5090565b61282191905b8082111561281d576000816000905550600101612805565b5090565b905600a165627a7a723058205e675e5e108af30f4cec0950a5a762c5bf6706191e2a1b59798a1a6433077fbe0029",
  "source": "pragma solidity ^0.4.24;\n\nimport \"./paperset.sol\";\n\ncontract PaperHelper is PaperSet {\n\n  uint weiFee = 5000000; // test\n\n  function setWeiFee(uint _fee) external onlyOwner {\n    weiFee = _fee;\n  }\n\n  function incVerifCount(uint _dataId) external notOwnerOfData(_dataId) {\n    datas[_dataId].verifCount++;\n    msg.sender.transfer(weiFee);\n  }\n\n  function incUnverifCount(uint _dataId) external notOwnerOfData(_dataId) {\n    datas[_dataId].unverifCount++;\n    msg.sender.transfer(weiFee);\n  }\n\n  function getDatasByOwner(address _owner) external view returns(uint[]) {\n    uint[] memory result = new uint[](ownerDataCount[_owner]);\n    uint counter = 0;\n    for (uint i = 0; i < datas.length; i++) {\n      if (dataToOwner[i] == _owner) {\n        result[counter] = i;\n        counter++;\n      }\n    }\n    return result;\n  }\n\n  function getPapersByOwner(address _owner) external view returns(uint[]) {\n    uint[] memory result = new uint[](ownerPaperCount[_owner]);\n    uint counter = 0;\n    for (uint i = 0; i < papers.length; i++) {\n      if (paperToOwner[i] == _owner) {\n        result[counter] = i;\n        counter++;\n      }\n    }\n    return result;\n  }\n\n  function getDatasByPaper(uint paperId) external view onlyOwnerOfPaper(paperId) returns(uint[]) {\n    uint[] memory result = new uint[](paperDataCount[paperId]);\n    uint counter = 0;\n    for (uint i = 0; i < datas.length; i++) {\n      if (DataToPaper[i] == paperId) {\n        result[counter] = i;\n        counter++;\n      }\n    }\n    return result;\n  }\n\n  function getPaperMetabyIdx(uint paperId) external view returns(string,string,string) {\n    return (papers[paperId].Thesis, papers[paperId].Conclusion, papers[paperId].PaperField);\n  }\n\n  function getDataMetabyIdx(uint dataId) external view returns(string,string,string, uint16, uint16) {\n    return (datas[dataId].TestParameters, datas[dataId].TestResults,\n      datas[dataId].Field, datas[dataId].verifCount, datas[dataId].unverifCount);\n  }\n\n  function getPaperIdxbyField(string field) external view returns(uint[]) {\n    uint counter = 0;\n    uint i = 0;\n    for (i = 0; i < papers.length; i++) {\n      if (keccak256(papers[i].PaperField) == keccak256(field)) {\n        counter++;\n      }\n    }\n\n    uint[] memory result = new uint[](counter);\n    counter = 0;\n    for (i = 0; i < papers.length; i++) {\n      if (keccak256(papers[i].PaperField) == keccak256(field)) {\n        result[counter] = i;\n        counter++;\n      }\n    }\n    return result;\n  }\n\n}\n",
  "sourcePath": "/Users/yidan.sun/Desktop/study_reproduce_blockchain/studyRepro/contracts/paperhelper.sol",
  "compiler": {
    "name": "solc",
    "version": "0.4.24+commit.e67f0147.Emscripten.clang"
  },
  "schemaVersion": "2.0.1",
  "updatedAt": "2018-08-05T06:58:40.029Z"
}