{
  "contractName": "PaperSet",
  "abi": [
    {
      "constant": true,
      "inputs": [
        {
          "name": "",
          "type": "uint256"
        }
      ],
      "name": "paperToOwner",
      "outputs": [
        {
          "name": "",
          "type": "address"
        }
      ],
      "payable": false,
      "stateMutability": "view",
      "type": "function"
    },
    {
      "constant": true,
      "inputs": [
        {
          "name": "",
          "type": "uint256"
        }
      ],
      "name": "paperDataCount",
      "outputs": [
        {
          "name": "",
          "type": "uint256"
        }
      ],
      "payable": false,
      "stateMutability": "view",
      "type": "function"
    },
    {
      "constant": true,
      "inputs": [
        {
          "name": "",
          "type": "uint256"
        }
      ],
      "name": "papers",
      "outputs": [
        {
          "name": "Thesis",
          "type": "string"
        },
        {
          "name": "Conclusion",
          "type": "string"
        },
        {
          "name": "PaperField",
          "type": "string"
        }
      ],
      "payable": false,
      "stateMutability": "view",
      "type": "function"
    },
    {
      "constant": true,
      "inputs": [],
      "name": "owner",
      "outputs": [
        {
          "name": "",
          "type": "address"
        }
      ],
      "payable": false,
      "stateMutability": "view",
      "type": "function"
    },
    {
      "constant": true,
      "inputs": [
        {
          "name": "",
          "type": "uint256"
        }
      ],
      "name": "datas",
      "outputs": [
        {
          "name": "TestParameters",
          "type": "string"
        },
        {
          "name": "TestResults",
          "type": "string"
        },
        {
          "name": "Field",
          "type": "string"
        },
        {
          "name": "verifCount",
          "type": "uint16"
        },
        {
          "name": "unverifCount",
          "type": "uint16"
        }
      ],
      "payable": false,
      "stateMutability": "view",
      "type": "function"
    },
    {
      "constant": true,
      "inputs": [
        {
          "name": "",
          "type": "address"
        }
      ],
      "name": "ownerDataCount",
      "outputs": [
        {
          "name": "",
          "type": "uint256"
        }
      ],
      "payable": false,
      "stateMutability": "view",
      "type": "function"
    },
    {
      "constant": true,
      "inputs": [
        {
          "name": "",
          "type": "uint256"
        }
      ],
      "name": "dataToOwner",
      "outputs": [
        {
          "name": "",
          "type": "address"
        }
      ],
      "payable": false,
      "stateMutability": "view",
      "type": "function"
    },
    {
      "constant": true,
      "inputs": [
        {
          "name": "",
          "type": "address"
        }
      ],
      "name": "ownerPaperCount",
      "outputs": [
        {
          "name": "",
          "type": "uint256"
        }
      ],
      "payable": false,
      "stateMutability": "view",
      "type": "function"
    },
    {
      "constant": false,
      "inputs": [
        {
          "name": "newOwner",
          "type": "address"
        }
      ],
      "name": "transferOwnership",
      "outputs": [],
      "payable": false,
      "stateMutability": "nonpayable",
      "type": "function"
    },
    {
      "constant": true,
      "inputs": [
        {
          "name": "",
          "type": "uint256"
        }
      ],
      "name": "DataToPaper",
      "outputs": [
        {
          "name": "",
          "type": "uint256"
        }
      ],
      "payable": false,
      "stateMutability": "view",
      "type": "function"
    },
    {
      "anonymous": false,
      "inputs": [
        {
          "indexed": false,
          "name": "dataId",
          "type": "uint256"
        },
        {
          "indexed": false,
          "name": "thesis",
          "type": "string"
        },
        {
          "indexed": false,
          "name": "conclusion",
          "type": "string"
        },
        {
          "indexed": false,
          "name": "paperfield",
          "type": "string"
        }
      ],
      "name": "NewPaper",
      "type": "event"
    },
    {
      "anonymous": false,
      "inputs": [
        {
          "indexed": false,
          "name": "dataId",
          "type": "uint256"
        },
        {
          "indexed": false,
          "name": "testparam",
          "type": "string"
        },
        {
          "indexed": false,
          "name": "testresult",
          "type": "string"
        }
      ],
      "name": "NewData",
      "type": "event"
    },
    {
      "anonymous": false,
      "inputs": [
        {
          "indexed": true,
          "name": "previousOwner",
          "type": "address"
        },
        {
          "indexed": true,
          "name": "newOwner",
          "type": "address"
        }
      ],
      "name": "OwnershipTransferred",
      "type": "event"
    },
    {
      "constant": false,
      "inputs": [
        {
          "name": "_thesis",
          "type": "string"
        },
        {
          "name": "_conclusion",
          "type": "string"
        },
        {
          "name": "_field",
          "type": "string"
        }
      ],
      "name": "_createPaper",
      "outputs": [
        {
          "name": "",
          "type": "uint256"
        }
      ],
      "payable": false,
      "stateMutability": "nonpayable",
      "type": "function"
    },
    {
      "constant": false,
      "inputs": [
        {
          "name": "paperId",
          "type": "uint256"
        },
        {
          "name": "_testparam",
          "type": "string"
        },
        {
          "name": "_testresult",
          "type": "string"
        },
        {
          "name": "_field",
          "type": "string"
        }
      ],
      "name": "_createDataForPaper",
      "outputs": [],
      "payable": false,
      "stateMutability": "nonpayable",
      "type": "function"
    }
  ],
  "bytecode": "0x6080604052336000806101000a81548173ffffffffffffffffffffffffffffffffffffffff021916908373ffffffffffffffffffffffffffffffffffffffff1602179055506114fd806100536000396000f3006080604052600436106100ba576000357c0100000000000000000000000000000000000000000000000000000000900463ffffffff1680634621ee92146100bf5780634cb835ed1461013e578063551a14d1146101ab5780635e775a27146101ec5780638da5cb5b1461036a578063b2f7f006146103c1578063c0a094fd14610436578063d3ab9bd8146105d2578063d604ead514610629578063e9436a2814610696578063f2fde38b146106ed578063fe0eb58314610730575b600080fd5b3480156100cb57600080fd5b50610128600480360381019080803590602001908201803590602001919091929391929390803590602001908201803590602001919091929391929390803590602001908201803590602001919091929391929390505050610771565b6040518082815260200191505060405180910390f35b34801561014a57600080fd5b5061016960048036038101908080359060200190929190505050610a16565b604051808273ffffffffffffffffffffffffffffffffffffffff1673ffffffffffffffffffffffffffffffffffffffff16815260200191505060405180910390f35b3480156101b757600080fd5b506101d660048036038101908080359060200190929190505050610a49565b6040518082815260200191505060405180910390f35b3480156101f857600080fd5b5061021760048036038101908080359060200190929190505050610a61565b60405180806020018060200180602001848103845287818151815260200191508051906020019080838360005b8381101561025f578082015181840152602081019050610244565b50505050905090810190601f16801561028c5780820380516001836020036101000a031916815260200191505b50848103835286818151815260200191508051906020019080838360005b838110156102c55780820151818401526020810190506102aa565b50505050905090810190601f1680156102f25780820380516001836020036101000a031916815260200191505b50848103825285818151815260200191508051906020019080838360005b8381101561032b578082015181840152602081019050610310565b50505050905090810190601f1680156103585780820380516001836020036101000a031916815260200191505b50965050505050505060405180910390f35b34801561037657600080fd5b5061037f610c62565b604051808273ffffffffffffffffffffffffffffffffffffffff1673ffffffffffffffffffffffffffffffffffffffff16815260200191505060405180910390f35b3480156103cd57600080fd5b5061043460048036038101908080359060200190929190803590602001908201803590602001919091929391929390803590602001908201803590602001919091929391929390803590602001908201803590602001919091929391929390505050610c87565b005b34801561044257600080fd5b5061046160048036038101908080359060200190929190505050610d71565b604051808060200180602001806020018661ffff1661ffff1681526020018561ffff1661ffff168152602001848103845289818151815260200191508051906020019080838360005b838110156104c55780820151818401526020810190506104aa565b50505050905090810190601f1680156104f25780820380516001836020036101000a031916815260200191505b50848103835288818151815260200191508051906020019080838360005b8381101561052b578082015181840152602081019050610510565b50505050905090810190601f1680156105585780820380516001836020036101000a031916815260200191505b50848103825287818151815260200191508051906020019080838360005b83811015610591578082015181840152602081019050610576565b50505050905090810190601f1680156105be5780820380516001836020036101000a031916815260200191505b509850505050505050505060405180910390f35b3480156105de57600080fd5b50610613600480360381019080803573ffffffffffffffffffffffffffffffffffffffff169060200190929190505050610f9a565b6040518082815260200191505060405180910390f35b34801561063557600080fd5b5061065460048036038101908080359060200190929190505050610fb2565b604051808273ffffffffffffffffffffffffffffffffffffffff1673ffffffffffffffffffffffffffffffffffffffff16815260200191505060405180910390f35b3480156106a257600080fd5b506106d7600480360381019080803573ffffffffffffffffffffffffffffffffffffffff169060200190929190505050610fe5565b6040518082815260200191505060405180910390f35b3480156106f957600080fd5b5061072e600480360381019080803573ffffffffffffffffffffffffffffffffffffffff169060200190929190505050610ffd565b005b34801561073c57600080fd5b5061075b60048036038101908080359060200190929190505050611152565b6040518082815260200191505060405180910390f35b600080600160046060604051908101604052808b8b8080601f016020809104026020016040519081016040528093929190818152602001838380828437820191505050505050815260200189898080601f016020809104026020016040519081016040528093929190818152602001838380828437820191505050505050815260200187878080601f01602080910402602001604051908101604052809392919081815260200183838082843782019150505050505081525090806001815401808255809150509060018203906000526020600020906003020160009091929091909150600082015181600001908051906020019061087192919061142c565b50602082015181600101908051906020019061088e92919061142c565b5060408201518160020190805190602001906108ab92919061142c565b505050039050336005600083815260200190815260200160002060006101000a81548173ffffffffffffffffffffffffffffffffffffffff021916908373ffffffffffffffffffffffffffffffffffffffff160217905550600660003373ffffffffffffffffffffffffffffffffffffffff1673ffffffffffffffffffffffffffffffffffffffff16815260200190815260200160002060008154809291906001019190505550600060076000838152602001908152602001600020819055507f09590c1808f23128cfde119e10e2405918cfc275c8ababcdfce0f599c0ee77b1818989898989896040518088815260200180602001806020018060200184810384528a8a82818152602001925080828437820191505084810383528888828181526020019250808284378201915050848103825286868281815260200192508082843782019150509a505050505050505050505060405180910390a1809150509695505050505050565b60056020528060005260406000206000915054906101000a900473ffffffffffffffffffffffffffffffffffffffff1681565b60076020528060005260406000206000915090505481565b600481815481101515610a7057fe5b9060005260206000209060030201600091509050806000018054600181600116156101000203166002900480601f016020809104026020016040519081016040528092919081815260200182805460018160011615610100020316600290048015610b1c5780601f10610af157610100808354040283529160200191610b1c565b820191906000526020600020905b815481529060010190602001808311610aff57829003601f168201915b505050505090806001018054600181600116156101000203166002900480601f016020809104026020016040519081016040528092919081815260200182805460018160011615610100020316600290048015610bba5780601f10610b8f57610100808354040283529160200191610bba565b820191906000526020600020905b815481529060010190602001808311610b9d57829003601f168201915b505050505090806002018054600181600116156101000203166002900480601f016020809104026020016040519081016040528092919081815260200182805460018160011615610100020316600290048015610c585780601f10610c2d57610100808354040283529160200191610c58565b820191906000526020600020905b815481529060010190602001808311610c3b57829003601f168201915b5050505050905083565b6000809054906101000a900473ffffffffffffffffffffffffffffffffffffffff1681565b60006007600089815260200190815260200160002060008154809291906001019190505550610d4d87878080601f01602080910402602001604051908101604052809392919081815260200183838082843782019150505050505086868080601f01602080910402602001604051908101604052809392919081815260200183838082843782019150505050505085858080601f01602080910402602001604051908101604052809392919081815260200183838082843782019150505050505061116a565b90508760086000838152602001908152602001600020819055505050505050505050565b600181815481101515610d8057fe5b9060005260206000209060040201600091509050806000018054600181600116156101000203166002900480601f016020809104026020016040519081016040528092919081815260200182805460018160011615610100020316600290048015610e2c5780601f10610e0157610100808354040283529160200191610e2c565b820191906000526020600020905b815481529060010190602001808311610e0f57829003601f168201915b505050505090806001018054600181600116156101000203166002900480601f016020809104026020016040519081016040528092919081815260200182805460018160011615610100020316600290048015610eca5780601f10610e9f57610100808354040283529160200191610eca565b820191906000526020600020905b815481529060010190602001808311610ead57829003601f168201915b505050505090806002018054600181600116156101000203166002900480601f016020809104026020016040519081016040528092919081815260200182805460018160011615610100020316600290048015610f685780601f10610f3d57610100808354040283529160200191610f68565b820191906000526020600020905b815481529060010190602001808311610f4b57829003601f168201915b5050505050908060030160009054906101000a900461ffff16908060030160029054906101000a900461ffff16905085565b60036020528060005260406000206000915090505481565b60026020528060005260406000206000915054906101000a900473ffffffffffffffffffffffffffffffffffffffff1681565b60066020528060005260406000206000915090505481565b6000809054906101000a900473ffffffffffffffffffffffffffffffffffffffff1673ffffffffffffffffffffffffffffffffffffffff163373ffffffffffffffffffffffffffffffffffffffff1614151561105857600080fd5b600073ffffffffffffffffffffffffffffffffffffffff168173ffffffffffffffffffffffffffffffffffffffff161415151561109457600080fd5b8073ffffffffffffffffffffffffffffffffffffffff166000809054906101000a900473ffffffffffffffffffffffffffffffffffffffff1673ffffffffffffffffffffffffffffffffffffffff167f8be0079c531659141344cd1fd0a4f28419497f9722a3daafe3b4186f6b6457e060405160405180910390a3806000806101000a81548173ffffffffffffffffffffffffffffffffffffffff021916908373ffffffffffffffffffffffffffffffffffffffff16021790555050565b60086020528060005260406000206000915090505481565b60008060018060a060405190810160405280888152602001878152602001868152602001600061ffff168152602001600061ffff168152509080600181540180825580915050906001820390600052602060002090600402016000909192909190915060008201518160000190805190602001906111e992919061142c565b50602082015181600101908051906020019061120692919061142c565b50604082015181600201908051906020019061122392919061142c565b5060608201518160030160006101000a81548161ffff021916908361ffff16021790555060808201518160030160026101000a81548161ffff021916908361ffff1602179055505050039050336002600083815260200190815260200160002060006101000a81548173ffffffffffffffffffffffffffffffffffffffff021916908373ffffffffffffffffffffffffffffffffffffffff160217905550600360003373ffffffffffffffffffffffffffffffffffffffff1673ffffffffffffffffffffffffffffffffffffffff168152602001908152602001600020600081548092919060010191905055507f92484fe2e43737d514a359d2cd842eafa40ae22cc3f8a2c85e10fe4529be5a75818686604051808481526020018060200180602001838103835285818151815260200191508051906020019080838360005b8381101561137e578082015181840152602081019050611363565b50505050905090810190601f1680156113ab5780820380516001836020036101000a031916815260200191505b50838103825284818151815260200191508051906020019080838360005b838110156113e45780820151818401526020810190506113c9565b50505050905090810190601f1680156114115780820380516001836020036101000a031916815260200191505b509550505050505060405180910390a1809150509392505050565b828054600181600116156101000203166002900490600052602060002090601f016020900481019282601f1061146d57805160ff191683800117855561149b565b8280016001018555821561149b579182015b8281111561149a57825182559160200191906001019061147f565b5b5090506114a891906114ac565b5090565b6114ce91905b808211156114ca5760008160009055506001016114b2565b5090565b905600a165627a7a723058208e99d07e7abc4792a2fa65c39da5ee110dc45fd5fb619c9858e5977387c6c8e80029",
  "source": "pragma solidity ^0.4.24;\n\nimport \"./dataset.sol\";\n\ncontract PaperSet is DataSet {\n\n  event NewPaper(uint dataId, string thesis, string conclusion, string paperfield);\n\n  modifier onlyOwnerOfData(uint _dataId) {\n    require(msg.sender == dataToOwner[_dataId]);\n    _;\n  }\n\n  modifier notOwnerOfData(uint _dataId) {\n    require(msg.sender != dataToOwner[_dataId]);\n    _;\n  }\n\n  modifier onlyOwnerOfPaper(uint _paperId) {\n    require(msg.sender == paperToOwner[_paperId]);\n    _;\n  }\n\n  modifier notOwnerOfPaper(uint _paperId) {\n    require(msg.sender != paperToOwner[_paperId]);\n    _;\n  }\n\n  struct Paper {\n    string Thesis;\n    string Conclusion;\n    string PaperField;\n  }\n\n  Paper[] public papers;\n\n  // Paper & Owner Relationsip\n  mapping (uint => address) public paperToOwner;\n  mapping (address => uint) public ownerPaperCount;\n\n  // Paper & Data Relationship\n  mapping (uint => uint) public paperDataCount;\n  mapping (uint => uint) public DataToPaper;\n\n  function _createPaper(string _thesis, string _conclusion, string _field) external returns(uint) {\n    uint id = papers.push(Paper(_thesis, _conclusion, _field)) - 1;\n    paperToOwner[id] = msg.sender;\n    ownerPaperCount[msg.sender]++;\n    paperDataCount[id] = 0;\n    emit NewPaper(id, _thesis, _conclusion, _field);\n    return id;\n  }\n\n  function _createDataForPaper(uint paperId, string _testparam, string _testresult, string _field) external {\n    paperDataCount[paperId]++;\n    uint id = _createData(_testparam, _testresult, _field);\n    DataToPaper[id] = paperId;\n  }\n\n}\n",
  "sourcePath": "/Users/yidan.sun/Desktop/study_reproduce_blockchain/studyRepro/contracts/paperset.sol",
  "compiler": {
    "name": "solc",
    "version": "0.4.24+commit.e67f0147.Emscripten.clang"
  },
  "schemaVersion": "2.0.1",
  "updatedAt": "2018-08-05T18:47:08.306Z"
}