{
  "contractName": "PaperSet",
  "abi": [
    {
      "constant": true,
      "inputs": [
        {
          "name": "",
          "type": "uint256"
        }
      ],
      "name": "paperToOwner",
      "outputs": [
        {
          "name": "",
          "type": "address"
        }
      ],
      "payable": false,
      "stateMutability": "view",
      "type": "function"
    },
    {
      "constant": true,
      "inputs": [
        {
          "name": "",
          "type": "uint256"
        }
      ],
      "name": "paperDataCount",
      "outputs": [
        {
          "name": "",
          "type": "uint256"
        }
      ],
      "payable": false,
      "stateMutability": "view",
      "type": "function"
    },
    {
      "constant": true,
      "inputs": [
        {
          "name": "",
          "type": "uint256"
        }
      ],
      "name": "papers",
      "outputs": [
        {
          "name": "Thesis",
          "type": "string"
        },
        {
          "name": "Conclusion",
          "type": "string"
        },
        {
          "name": "PaperField",
          "type": "string"
        }
      ],
      "payable": false,
      "stateMutability": "view",
      "type": "function"
    },
    {
      "constant": true,
      "inputs": [],
      "name": "owner",
      "outputs": [
        {
          "name": "",
          "type": "address"
        }
      ],
      "payable": false,
      "stateMutability": "view",
      "type": "function"
    },
    {
      "constant": true,
      "inputs": [
        {
          "name": "",
          "type": "uint256"
        }
      ],
      "name": "datas",
      "outputs": [
        {
          "name": "TestParameters",
          "type": "string"
        },
        {
          "name": "TestResults",
          "type": "string"
        },
        {
          "name": "Field",
          "type": "string"
        },
        {
          "name": "verifCount",
          "type": "uint16"
        },
        {
          "name": "unverifCount",
          "type": "uint16"
        }
      ],
      "payable": false,
      "stateMutability": "view",
      "type": "function"
    },
    {
      "constant": true,
      "inputs": [
        {
          "name": "",
          "type": "address"
        }
      ],
      "name": "ownerDataCount",
      "outputs": [
        {
          "name": "",
          "type": "uint256"
        }
      ],
      "payable": false,
      "stateMutability": "view",
      "type": "function"
    },
    {
      "constant": true,
      "inputs": [
        {
          "name": "",
          "type": "uint256"
        }
      ],
      "name": "dataToOwner",
      "outputs": [
        {
          "name": "",
          "type": "address"
        }
      ],
      "payable": false,
      "stateMutability": "view",
      "type": "function"
    },
    {
      "constant": true,
      "inputs": [
        {
          "name": "",
          "type": "address"
        }
      ],
      "name": "ownerPaperCount",
      "outputs": [
        {
          "name": "",
          "type": "uint256"
        }
      ],
      "payable": false,
      "stateMutability": "view",
      "type": "function"
    },
    {
      "constant": false,
      "inputs": [
        {
          "name": "newOwner",
          "type": "address"
        }
      ],
      "name": "transferOwnership",
      "outputs": [],
      "payable": false,
      "stateMutability": "nonpayable",
      "type": "function"
    },
    {
      "constant": true,
      "inputs": [
        {
          "name": "",
          "type": "uint256"
        }
      ],
      "name": "DataToPaper",
      "outputs": [
        {
          "name": "",
          "type": "uint256"
        }
      ],
      "payable": false,
      "stateMutability": "view",
      "type": "function"
    },
    {
      "anonymous": false,
      "inputs": [
        {
          "indexed": false,
          "name": "dataId",
          "type": "uint256"
        },
        {
          "indexed": false,
          "name": "thesis",
          "type": "string"
        },
        {
          "indexed": false,
          "name": "conclusion",
          "type": "string"
        },
        {
          "indexed": false,
          "name": "paperfield",
          "type": "string"
        }
      ],
      "name": "NewPaper",
      "type": "event"
    },
    {
      "anonymous": false,
      "inputs": [
        {
          "indexed": false,
          "name": "dataId",
          "type": "uint256"
        },
        {
          "indexed": false,
          "name": "testparam",
          "type": "string"
        },
        {
          "indexed": false,
          "name": "testresult",
          "type": "string"
        }
      ],
      "name": "NewData",
      "type": "event"
    },
    {
      "anonymous": false,
      "inputs": [
        {
          "indexed": true,
          "name": "previousOwner",
          "type": "address"
        },
        {
          "indexed": true,
          "name": "newOwner",
          "type": "address"
        }
      ],
      "name": "OwnershipTransferred",
      "type": "event"
    }
  ],
  "bytecode": "0x6080604052336000806101000a81548173ffffffffffffffffffffffffffffffffffffffff021916908373ffffffffffffffffffffffffffffffffffffffff160217905550610cfd806100536000396000f3006080604052600436106100a4576000357c0100000000000000000000000000000000000000000000000000000000900463ffffffff1680634cb835ed146100a9578063551a14d1146101165780635e775a27146101575780638da5cb5b146102d5578063c0a094fd1461032c578063d3ab9bd8146104c8578063d604ead51461051f578063e9436a281461058c578063f2fde38b146105e3578063fe0eb58314610626575b600080fd5b3480156100b557600080fd5b506100d460048036038101908080359060200190929190505050610667565b604051808273ffffffffffffffffffffffffffffffffffffffff1673ffffffffffffffffffffffffffffffffffffffff16815260200191505060405180910390f35b34801561012257600080fd5b506101416004803603810190808035906020019092919050505061069a565b6040518082815260200191505060405180910390f35b34801561016357600080fd5b50610182600480360381019080803590602001909291905050506106b2565b60405180806020018060200180602001848103845287818151815260200191508051906020019080838360005b838110156101ca5780820151818401526020810190506101af565b50505050905090810190601f1680156101f75780820380516001836020036101000a031916815260200191505b50848103835286818151815260200191508051906020019080838360005b83811015610230578082015181840152602081019050610215565b50505050905090810190601f16801561025d5780820380516001836020036101000a031916815260200191505b50848103825285818151815260200191508051906020019080838360005b8381101561029657808201518184015260208101905061027b565b50505050905090810190601f1680156102c35780820380516001836020036101000a031916815260200191505b50965050505050505060405180910390f35b3480156102e157600080fd5b506102ea6108b3565b604051808273ffffffffffffffffffffffffffffffffffffffff1673ffffffffffffffffffffffffffffffffffffffff16815260200191505060405180910390f35b34801561033857600080fd5b50610357600480360381019080803590602001909291905050506108d8565b604051808060200180602001806020018661ffff1661ffff1681526020018561ffff1661ffff168152602001848103845289818151815260200191508051906020019080838360005b838110156103bb5780820151818401526020810190506103a0565b50505050905090810190601f1680156103e85780820380516001836020036101000a031916815260200191505b50848103835288818151815260200191508051906020019080838360005b83811015610421578082015181840152602081019050610406565b50505050905090810190601f16801561044e5780820380516001836020036101000a031916815260200191505b50848103825287818151815260200191508051906020019080838360005b8381101561048757808201518184015260208101905061046c565b50505050905090810190601f1680156104b45780820380516001836020036101000a031916815260200191505b509850505050505050505060405180910390f35b3480156104d457600080fd5b50610509600480360381019080803573ffffffffffffffffffffffffffffffffffffffff169060200190929190505050610b01565b6040518082815260200191505060405180910390f35b34801561052b57600080fd5b5061054a60048036038101908080359060200190929190505050610b19565b604051808273ffffffffffffffffffffffffffffffffffffffff1673ffffffffffffffffffffffffffffffffffffffff16815260200191505060405180910390f35b34801561059857600080fd5b506105cd600480360381019080803573ffffffffffffffffffffffffffffffffffffffff169060200190929190505050610b4c565b6040518082815260200191505060405180910390f35b3480156105ef57600080fd5b50610624600480360381019080803573ffffffffffffffffffffffffffffffffffffffff169060200190929190505050610b64565b005b34801561063257600080fd5b5061065160048036038101908080359060200190929190505050610cb9565b6040518082815260200191505060405180910390f35b60056020528060005260406000206000915054906101000a900473ffffffffffffffffffffffffffffffffffffffff1681565b60076020528060005260406000206000915090505481565b6004818154811015156106c157fe5b9060005260206000209060030201600091509050806000018054600181600116156101000203166002900480601f01602080910402602001604051908101604052809291908181526020018280546001816001161561010002031660029004801561076d5780601f106107425761010080835404028352916020019161076d565b820191906000526020600020905b81548152906001019060200180831161075057829003601f168201915b505050505090806001018054600181600116156101000203166002900480601f01602080910402602001604051908101604052809291908181526020018280546001816001161561010002031660029004801561080b5780601f106107e05761010080835404028352916020019161080b565b820191906000526020600020905b8154815290600101906020018083116107ee57829003601f168201915b505050505090806002018054600181600116156101000203166002900480601f0160208091040260200160405190810160405280929190818152602001828054600181600116156101000203166002900480156108a95780601f1061087e576101008083540402835291602001916108a9565b820191906000526020600020905b81548152906001019060200180831161088c57829003601f168201915b5050505050905083565b6000809054906101000a900473ffffffffffffffffffffffffffffffffffffffff1681565b6001818154811015156108e757fe5b9060005260206000209060040201600091509050806000018054600181600116156101000203166002900480601f0160208091040260200160405190810160405280929190818152602001828054600181600116156101000203166002900480156109935780601f1061096857610100808354040283529160200191610993565b820191906000526020600020905b81548152906001019060200180831161097657829003601f168201915b505050505090806001018054600181600116156101000203166002900480601f016020809104026020016040519081016040528092919081815260200182805460018160011615610100020316600290048015610a315780601f10610a0657610100808354040283529160200191610a31565b820191906000526020600020905b815481529060010190602001808311610a1457829003601f168201915b505050505090806002018054600181600116156101000203166002900480601f016020809104026020016040519081016040528092919081815260200182805460018160011615610100020316600290048015610acf5780601f10610aa457610100808354040283529160200191610acf565b820191906000526020600020905b815481529060010190602001808311610ab257829003601f168201915b5050505050908060030160009054906101000a900461ffff16908060030160029054906101000a900461ffff16905085565b60036020528060005260406000206000915090505481565b60026020528060005260406000206000915054906101000a900473ffffffffffffffffffffffffffffffffffffffff1681565b60066020528060005260406000206000915090505481565b6000809054906101000a900473ffffffffffffffffffffffffffffffffffffffff1673ffffffffffffffffffffffffffffffffffffffff163373ffffffffffffffffffffffffffffffffffffffff16141515610bbf57600080fd5b600073ffffffffffffffffffffffffffffffffffffffff168173ffffffffffffffffffffffffffffffffffffffff1614151515610bfb57600080fd5b8073ffffffffffffffffffffffffffffffffffffffff166000809054906101000a900473ffffffffffffffffffffffffffffffffffffffff1673ffffffffffffffffffffffffffffffffffffffff167f8be0079c531659141344cd1fd0a4f28419497f9722a3daafe3b4186f6b6457e060405160405180910390a3806000806101000a81548173ffffffffffffffffffffffffffffffffffffffff021916908373ffffffffffffffffffffffffffffffffffffffff16021790555050565b600860205280600052604060002060009150905054815600a165627a7a72305820dbd5f21562cdccf700bee7bcbe978541715e7155d59c1b85a75a02172693a3750029",
  "source": "pragma solidity ^0.4.24;\n\nimport \"./dataset.sol\";\n\ncontract PaperSet is DataSet {\n\n  event NewPaper(uint dataId, string thesis, string conclusion, string paperfield);\n\n  modifier onlyOwnerOf(uint _dataId) {\n    require(msg.sender == dataToOwner[_dataId]);\n    _;\n  }\n\n  modifier notOwnerOf(uint _dataId) {\n    require(msg.sender != dataToOwner[_dataId]);\n    _;\n  }\n\n  struct Paper {\n    string Thesis;\n    string Conclusion;\n    string PaperField;\n  }\n\n  Paper[] public papers;\n\n  // Paper & Owner Relationsip\n  mapping (uint => address) public paperToOwner;\n  mapping (address => uint) public ownerPaperCount;\n\n  // Paper & Data Relationship\n  mapping (uint => uint) public paperDataCount;\n  mapping (uint => uint) public DataToPaper;\n\n  function _createPaper(string _thesis, string _conclusion, string _field) internal {\n    uint id = papers.push(Paper(_thesis, _conclusion, _field)) - 1;\n    paperToOwner[id] = msg.sender;\n    ownerPaperCount[msg.sender]++;\n    paperDataCount[id] = 0;\n    NewPaper(id, _thesis, _conclusion, _field);\n  }\n\n  function _createDataForPaper(uint paperId, string _testparam, string _testresult, string _field) internal {\n    paperDataCount[paperId]++;\n    uint id = _createData(_testparam, _testresult, _field);\n    DataToPaper[id] = paperId;\n  }\n\n}\n",
  "sourcePath": "/Users/ericfrankel/Desktop/study_reproduce_blockchain/studyRepro/contracts/paperset.sol",
  "compiler": {
    "name": "solc",
    "version": "0.4.24+commit.e67f0147.Emscripten.clang"
  },
  "schemaVersion": "2.0.1",
  "updatedAt": "2018-08-04T20:57:52.789Z"
}