{
  "contractName": "PaperHelper",
  "abi": [
    {
      "constant": false,
      "inputs": [
        {
          "name": "_thesis",
          "type": "string"
        },
        {
          "name": "_conclusion",
          "type": "string"
        },
        {
          "name": "_field",
          "type": "string"
        }
      ],
      "name": "_createPaper",
      "outputs": [],
      "payable": false,
      "stateMutability": "nonpayable",
      "type": "function"
    },
    {
      "constant": true,
      "inputs": [
        {
          "name": "",
          "type": "uint256"
        }
      ],
      "name": "paperToOwner",
      "outputs": [
        {
          "name": "",
          "type": "address"
        }
      ],
      "payable": false,
      "stateMutability": "view",
      "type": "function"
    },
    {
      "constant": true,
      "inputs": [
        {
          "name": "",
          "type": "uint256"
        }
      ],
      "name": "paperDataCount",
      "outputs": [
        {
          "name": "",
          "type": "uint256"
        }
      ],
      "payable": false,
      "stateMutability": "view",
      "type": "function"
    },
    {
      "constant": true,
      "inputs": [
        {
          "name": "",
          "type": "uint256"
        }
      ],
      "name": "papers",
      "outputs": [
        {
          "name": "Thesis",
          "type": "string"
        },
        {
          "name": "Conclusion",
          "type": "string"
        },
        {
          "name": "PaperField",
          "type": "string"
        }
      ],
      "payable": false,
      "stateMutability": "view",
      "type": "function"
    },
    {
      "constant": true,
      "inputs": [],
      "name": "owner",
      "outputs": [
        {
          "name": "",
          "type": "address"
        }
      ],
      "payable": false,
      "stateMutability": "view",
      "type": "function"
    },
    {
      "constant": false,
      "inputs": [
        {
          "name": "paperId",
          "type": "uint256"
        },
        {
          "name": "_testparam",
          "type": "string"
        },
        {
          "name": "_testresult",
          "type": "string"
        },
        {
          "name": "_field",
          "type": "string"
        }
      ],
      "name": "_createDataForPaper",
      "outputs": [],
      "payable": false,
      "stateMutability": "nonpayable",
      "type": "function"
    },
    {
      "constant": true,
      "inputs": [
        {
          "name": "",
          "type": "uint256"
        }
      ],
      "name": "datas",
      "outputs": [
        {
          "name": "TestParameters",
          "type": "string"
        },
        {
          "name": "TestResults",
          "type": "string"
        },
        {
          "name": "Field",
          "type": "string"
        },
        {
          "name": "verifCount",
          "type": "uint16"
        },
        {
          "name": "unverifCount",
          "type": "uint16"
        }
      ],
      "payable": false,
      "stateMutability": "view",
      "type": "function"
    },
    {
      "constant": true,
      "inputs": [
        {
          "name": "",
          "type": "address"
        }
      ],
      "name": "ownerDataCount",
      "outputs": [
        {
          "name": "",
          "type": "uint256"
        }
      ],
      "payable": false,
      "stateMutability": "view",
      "type": "function"
    },
    {
      "constant": true,
      "inputs": [
        {
          "name": "",
          "type": "uint256"
        }
      ],
      "name": "dataToOwner",
      "outputs": [
        {
          "name": "",
          "type": "address"
        }
      ],
      "payable": false,
      "stateMutability": "view",
      "type": "function"
    },
    {
      "constant": true,
      "inputs": [
        {
          "name": "",
          "type": "address"
        }
      ],
      "name": "ownerPaperCount",
      "outputs": [
        {
          "name": "",
          "type": "uint256"
        }
      ],
      "payable": false,
      "stateMutability": "view",
      "type": "function"
    },
    {
      "constant": false,
      "inputs": [
        {
          "name": "newOwner",
          "type": "address"
        }
      ],
      "name": "transferOwnership",
      "outputs": [],
      "payable": false,
      "stateMutability": "nonpayable",
      "type": "function"
    },
    {
      "constant": true,
      "inputs": [
        {
          "name": "",
          "type": "uint256"
        }
      ],
      "name": "DataToPaper",
      "outputs": [
        {
          "name": "",
          "type": "uint256"
        }
      ],
      "payable": false,
      "stateMutability": "view",
      "type": "function"
    },
    {
      "anonymous": false,
      "inputs": [
        {
          "indexed": false,
          "name": "dataId",
          "type": "uint256"
        },
        {
          "indexed": false,
          "name": "thesis",
          "type": "string"
        },
        {
          "indexed": false,
          "name": "conclusion",
          "type": "string"
        },
        {
          "indexed": false,
          "name": "paperfield",
          "type": "string"
        }
      ],
      "name": "NewPaper",
      "type": "event"
    },
    {
      "anonymous": false,
      "inputs": [
        {
          "indexed": false,
          "name": "dataId",
          "type": "uint256"
        },
        {
          "indexed": false,
          "name": "testparam",
          "type": "string"
        },
        {
          "indexed": false,
          "name": "testresult",
          "type": "string"
        }
      ],
      "name": "NewData",
      "type": "event"
    },
    {
      "anonymous": false,
      "inputs": [
        {
          "indexed": true,
          "name": "previousOwner",
          "type": "address"
        },
        {
          "indexed": true,
          "name": "newOwner",
          "type": "address"
        }
      ],
      "name": "OwnershipTransferred",
      "type": "event"
    },
    {
      "constant": false,
      "inputs": [
        {
          "name": "_dataId",
          "type": "uint256"
        }
      ],
      "name": "incVerifCount",
      "outputs": [],
      "payable": false,
      "stateMutability": "nonpayable",
      "type": "function"
    },
    {
      "constant": false,
      "inputs": [
        {
          "name": "_dataId",
          "type": "uint256"
        }
      ],
      "name": "incUnverifCount",
      "outputs": [],
      "payable": false,
      "stateMutability": "nonpayable",
      "type": "function"
    },
    {
      "constant": true,
      "inputs": [
        {
          "name": "_owner",
          "type": "address"
        }
      ],
      "name": "getDatasByOwner",
      "outputs": [
        {
          "name": "",
          "type": "uint256[]"
        }
      ],
      "payable": false,
      "stateMutability": "view",
      "type": "function"
    },
    {
      "constant": true,
      "inputs": [
        {
          "name": "_owner",
          "type": "address"
        }
      ],
      "name": "getPapersByOwner",
      "outputs": [
        {
          "name": "",
          "type": "uint256[]"
        }
      ],
      "payable": false,
      "stateMutability": "view",
      "type": "function"
    }
  ],
  "bytecode": "0x6080604052336000806101000a81548173ffffffffffffffffffffffffffffffffffffffff021916908373ffffffffffffffffffffffffffffffffffffffff160217905550611a89806100536000396000f3006080604052600436106100e6576000357c0100000000000000000000000000000000000000000000000000000000900463ffffffff16806306f6ed4f146100eb5780634621ee92146101185780634cb835ed14610183578063551a14d1146101f05780635ce326b0146102315780635e775a27146102c95780638da5cb5b14610447578063a98ee0a41461049e578063b2f7f006146104cb578063c0a094fd14610540578063c5fd8d22146106dc578063d3ab9bd814610774578063d604ead5146107cb578063e9436a2814610838578063f2fde38b1461088f578063fe0eb583146108d2575b600080fd5b3480156100f757600080fd5b5061011660048036038101908080359060200190929190505050610913565b005b34801561012457600080fd5b506101816004803603810190808035906020019082018035906020019190919293919293908035906020019082018035906020019190919293919293908035906020019082018035906020019190919293919293905050506109d9565b005b34801561018f57600080fd5b506101ae60048036038101908080359060200190929190505050610c78565b604051808273ffffffffffffffffffffffffffffffffffffffff1673ffffffffffffffffffffffffffffffffffffffff16815260200191505060405180910390f35b3480156101fc57600080fd5b5061021b60048036038101908080359060200190929190505050610cab565b6040518082815260200191505060405180910390f35b34801561023d57600080fd5b50610272600480360381019080803573ffffffffffffffffffffffffffffffffffffffff169060200190929190505050610cc3565b6040518080602001828103825283818151815260200191508051906020019060200280838360005b838110156102b557808201518184015260208101905061029a565b505050509050019250505060405180910390f35b3480156102d557600080fd5b506102f460048036038101908080359060200190929190505050610df5565b60405180806020018060200180602001848103845287818151815260200191508051906020019080838360005b8381101561033c578082015181840152602081019050610321565b50505050905090810190601f1680156103695780820380516001836020036101000a031916815260200191505b50848103835286818151815260200191508051906020019080838360005b838110156103a2578082015181840152602081019050610387565b50505050905090810190601f1680156103cf5780820380516001836020036101000a031916815260200191505b50848103825285818151815260200191508051906020019080838360005b838110156104085780820151818401526020810190506103ed565b50505050905090810190601f1680156104355780820380516001836020036101000a031916815260200191505b50965050505050505060405180910390f35b34801561045357600080fd5b5061045c610ff6565b604051808273ffffffffffffffffffffffffffffffffffffffff1673ffffffffffffffffffffffffffffffffffffffff16815260200191505060405180910390f35b3480156104aa57600080fd5b506104c96004803603810190808035906020019092919050505061101b565b005b3480156104d757600080fd5b5061053e600480360381019080803590602001909291908035906020019082018035906020019190919293919293908035906020019082018035906020019190919293919293908035906020019082018035906020019190919293919293905050506110e1565b005b34801561054c57600080fd5b5061056b600480360381019080803590602001909291905050506111cb565b604051808060200180602001806020018661ffff1661ffff1681526020018561ffff1661ffff168152602001848103845289818151815260200191508051906020019080838360005b838110156105cf5780820151818401526020810190506105b4565b50505050905090810190601f1680156105fc5780820380516001836020036101000a031916815260200191505b50848103835288818151815260200191508051906020019080838360005b8381101561063557808201518184015260208101905061061a565b50505050905090810190601f1680156106625780820380516001836020036101000a031916815260200191505b50848103825287818151815260200191508051906020019080838360005b8381101561069b578082015181840152602081019050610680565b50505050905090810190601f1680156106c85780820380516001836020036101000a031916815260200191505b509850505050505050505060405180910390f35b3480156106e857600080fd5b5061071d600480360381019080803573ffffffffffffffffffffffffffffffffffffffff1690602001909291905050506113f4565b6040518080602001828103825283818151815260200191508051906020019060200280838360005b83811015610760578082015181840152602081019050610745565b505050509050019250505060405180910390f35b34801561078057600080fd5b506107b5600480360381019080803573ffffffffffffffffffffffffffffffffffffffff169060200190929190505050611526565b6040518082815260200191505060405180910390f35b3480156107d757600080fd5b506107f66004803603810190808035906020019092919050505061153e565b604051808273ffffffffffffffffffffffffffffffffffffffff1673ffffffffffffffffffffffffffffffffffffffff16815260200191505060405180910390f35b34801561084457600080fd5b50610879600480360381019080803573ffffffffffffffffffffffffffffffffffffffff169060200190929190505050611571565b6040518082815260200191505060405180910390f35b34801561089b57600080fd5b506108d0600480360381019080803573ffffffffffffffffffffffffffffffffffffffff169060200190929190505050611589565b005b3480156108de57600080fd5b506108fd600480360381019080803590602001909291905050506116de565b6040518082815260200191505060405180910390f35b806002600082815260200190815260200160002060009054906101000a900473ffffffffffffffffffffffffffffffffffffffff1673ffffffffffffffffffffffffffffffffffffffff163373ffffffffffffffffffffffffffffffffffffffff161415151561098257600080fd5b60018281548110151561099157fe5b9060005260206000209060040201600301600081819054906101000a900461ffff168092919060010191906101000a81548161ffff021916908361ffff160217905550505050565b6000600160046060604051908101604052808a8a8080601f016020809104026020016040519081016040528093929190818152602001838380828437820191505050505050815260200188888080601f016020809104026020016040519081016040528093929190818152602001838380828437820191505050505050815260200186868080601f016020809104026020016040519081016040528093929190818152602001838380828437820191505050505050815250908060018154018082558091505090600182039060005260206000209060030201600090919290919091506000820151816000019080519060200190610ad89291906119b8565b506020820151816001019080519060200190610af59291906119b8565b506040820151816002019080519060200190610b129291906119b8565b505050039050336005600083815260200190815260200160002060006101000a81548173ffffffffffffffffffffffffffffffffffffffff021916908373ffffffffffffffffffffffffffffffffffffffff160217905550600660003373ffffffffffffffffffffffffffffffffffffffff1673ffffffffffffffffffffffffffffffffffffffff16815260200190815260200160002060008154809291906001019190505550600060076000838152602001908152602001600020819055507f09590c1808f23128cfde119e10e2405918cfc275c8ababcdfce0f599c0ee77b1818888888888886040518088815260200180602001806020018060200184810384528a8a82818152602001925080828437820191505084810383528888828181526020019250808284378201915050848103825286868281815260200192508082843782019150509a505050505050505050505060405180910390a150505050505050565b60056020528060005260406000206000915054906101000a900473ffffffffffffffffffffffffffffffffffffffff1681565b60076020528060005260406000206000915090505481565b606080600080600660008673ffffffffffffffffffffffffffffffffffffffff1673ffffffffffffffffffffffffffffffffffffffff16815260200190815260200160002054604051908082528060200260200182016040528015610d375781602001602082028038833980820191505090505b50925060009150600090505b600480549050811015610dea578473ffffffffffffffffffffffffffffffffffffffff166005600083815260200190815260200160002060009054906101000a900473ffffffffffffffffffffffffffffffffffffffff1673ffffffffffffffffffffffffffffffffffffffff161415610ddd57808383815181101515610dc657fe5b906020019060200201818152505081806001019250505b8080600101915050610d43565b829350505050919050565b600481815481101515610e0457fe5b9060005260206000209060030201600091509050806000018054600181600116156101000203166002900480601f016020809104026020016040519081016040528092919081815260200182805460018160011615610100020316600290048015610eb05780601f10610e8557610100808354040283529160200191610eb0565b820191906000526020600020905b815481529060010190602001808311610e9357829003601f168201915b505050505090806001018054600181600116156101000203166002900480601f016020809104026020016040519081016040528092919081815260200182805460018160011615610100020316600290048015610f4e5780601f10610f2357610100808354040283529160200191610f4e565b820191906000526020600020905b815481529060010190602001808311610f3157829003601f168201915b505050505090806002018054600181600116156101000203166002900480601f016020809104026020016040519081016040528092919081815260200182805460018160011615610100020316600290048015610fec5780601f10610fc157610100808354040283529160200191610fec565b820191906000526020600020905b815481529060010190602001808311610fcf57829003601f168201915b5050505050905083565b6000809054906101000a900473ffffffffffffffffffffffffffffffffffffffff1681565b806002600082815260200190815260200160002060009054906101000a900473ffffffffffffffffffffffffffffffffffffffff1673ffffffffffffffffffffffffffffffffffffffff163373ffffffffffffffffffffffffffffffffffffffff161415151561108a57600080fd5b60018281548110151561109957fe5b9060005260206000209060040201600301600281819054906101000a900461ffff168092919060010191906101000a81548161ffff021916908361ffff160217905550505050565b600060076000898152602001908152602001600020600081548092919060010191905055506111a787878080601f01602080910402602001604051908101604052809392919081815260200183838082843782019150505050505086868080601f01602080910402602001604051908101604052809392919081815260200183838082843782019150505050505085858080601f0160208091040260200160405190810160405280939291908181526020018383808284378201915050505050506116f6565b90508760086000838152602001908152602001600020819055505050505050505050565b6001818154811015156111da57fe5b9060005260206000209060040201600091509050806000018054600181600116156101000203166002900480601f0160208091040260200160405190810160405280929190818152602001828054600181600116156101000203166002900480156112865780601f1061125b57610100808354040283529160200191611286565b820191906000526020600020905b81548152906001019060200180831161126957829003601f168201915b505050505090806001018054600181600116156101000203166002900480601f0160208091040260200160405190810160405280929190818152602001828054600181600116156101000203166002900480156113245780601f106112f957610100808354040283529160200191611324565b820191906000526020600020905b81548152906001019060200180831161130757829003601f168201915b505050505090806002018054600181600116156101000203166002900480601f0160208091040260200160405190810160405280929190818152602001828054600181600116156101000203166002900480156113c25780601f10611397576101008083540402835291602001916113c2565b820191906000526020600020905b8154815290600101906020018083116113a557829003601f168201915b5050505050908060030160009054906101000a900461ffff16908060030160029054906101000a900461ffff16905085565b606080600080600360008673ffffffffffffffffffffffffffffffffffffffff1673ffffffffffffffffffffffffffffffffffffffff168152602001908152602001600020546040519080825280602002602001820160405280156114685781602001602082028038833980820191505090505b50925060009150600090505b60018054905081101561151b578473ffffffffffffffffffffffffffffffffffffffff166002600083815260200190815260200160002060009054906101000a900473ffffffffffffffffffffffffffffffffffffffff1673ffffffffffffffffffffffffffffffffffffffff16141561150e578083838151811015156114f757fe5b906020019060200201818152505081806001019250505b8080600101915050611474565b829350505050919050565b60036020528060005260406000206000915090505481565b60026020528060005260406000206000915054906101000a900473ffffffffffffffffffffffffffffffffffffffff1681565b60066020528060005260406000206000915090505481565b6000809054906101000a900473ffffffffffffffffffffffffffffffffffffffff1673ffffffffffffffffffffffffffffffffffffffff163373ffffffffffffffffffffffffffffffffffffffff161415156115e457600080fd5b600073ffffffffffffffffffffffffffffffffffffffff168173ffffffffffffffffffffffffffffffffffffffff161415151561162057600080fd5b8073ffffffffffffffffffffffffffffffffffffffff166000809054906101000a900473ffffffffffffffffffffffffffffffffffffffff1673ffffffffffffffffffffffffffffffffffffffff167f8be0079c531659141344cd1fd0a4f28419497f9722a3daafe3b4186f6b6457e060405160405180910390a3806000806101000a81548173ffffffffffffffffffffffffffffffffffffffff021916908373ffffffffffffffffffffffffffffffffffffffff16021790555050565b60086020528060005260406000206000915090505481565b60008060018060a060405190810160405280888152602001878152602001868152602001600061ffff168152602001600061ffff168152509080600181540180825580915050906001820390600052602060002090600402016000909192909190915060008201518160000190805190602001906117759291906119b8565b5060208201518160010190805190602001906117929291906119b8565b5060408201518160020190805190602001906117af9291906119b8565b5060608201518160030160006101000a81548161ffff021916908361ffff16021790555060808201518160030160026101000a81548161ffff021916908361ffff1602179055505050039050336002600083815260200190815260200160002060006101000a81548173ffffffffffffffffffffffffffffffffffffffff021916908373ffffffffffffffffffffffffffffffffffffffff160217905550600360003373ffffffffffffffffffffffffffffffffffffffff1673ffffffffffffffffffffffffffffffffffffffff168152602001908152602001600020600081548092919060010191905055507f92484fe2e43737d514a359d2cd842eafa40ae22cc3f8a2c85e10fe4529be5a75818686604051808481526020018060200180602001838103835285818151815260200191508051906020019080838360005b8381101561190a5780820151818401526020810190506118ef565b50505050905090810190601f1680156119375780820380516001836020036101000a031916815260200191505b50838103825284818151815260200191508051906020019080838360005b83811015611970578082015181840152602081019050611955565b50505050905090810190601f16801561199d5780820380516001836020036101000a031916815260200191505b509550505050505060405180910390a1809150509392505050565b828054600181600116156101000203166002900490600052602060002090601f016020900481019282601f106119f957805160ff1916838001178555611a27565b82800160010185558215611a27579182015b82811115611a26578251825591602001919060010190611a0b565b5b509050611a349190611a38565b5090565b611a5a91905b80821115611a56576000816000905550600101611a3e565b5090565b905600a165627a7a7230582082506e5d02e5f467daa678dd3eac1796090f729e84e188c88c9590d48e9dfffb0029",
  "source": "pragma solidity ^0.4.24;\n\nimport \"./paperset.sol\";\n\ncontract PaperHelper is PaperSet {\n\n  function incVerifCount(uint _dataId) external notOwnerOf(_dataId) {\n    datas[_dataId].verifCount++;\n  }\n\n  function incUnverifCount(uint _dataId) external notOwnerOf(_dataId) {\n    datas[_dataId].unverifCount++;\n  }\n\n  function getDatasByOwner(address _owner) external view returns(uint[]) {\n    uint[] memory result = new uint[](ownerDataCount[_owner]);\n    uint counter = 0;\n    for (uint i = 0; i < datas.length; i++) {\n      if (dataToOwner[i] == _owner) {\n        result[counter] = i;\n        counter++;\n      }\n    }\n    return result;\n  }\n\n  function getPapersByOwner(address _owner) external view returns(uint[]) {\n    uint[] memory result = new uint[](ownerPaperCount[_owner]);\n    uint counter = 0;\n    for (uint i = 0; i < papers.length; i++) {\n      if (paperToOwner[i] == _owner) {\n        result[counter] = i;\n        counter++;\n      }\n    }\n    return result;\n  }\n\n\n}\n",
  "sourcePath": "/Users/yidan.sun/Desktop/study_reproduce_blockchain/studyRepro/contracts/paperhelper.sol",
  "compiler": {
    "name": "solc",
    "version": "0.4.24+commit.e67f0147.Emscripten.clang"
  },
  "schemaVersion": "2.0.1",
  "updatedAt": "2018-08-05T00:41:31.084Z"
}